{
  "contractName": "TokenSale",
  "abi": [
    {
      "inputs": [
        {
          "internalType": "contract MyToken",
          "name": "_token",
          "type": "address"
        },
        {
          "internalType": "uint256",
          "name": "_tokenPrice",
          "type": "uint256"
        }
      ],
      "stateMutability": "nonpayable",
      "type": "constructor"
    },
    {
      "inputs": [
        {
          "internalType": "address",
          "name": "owner",
          "type": "address"
        }
      ],
      "name": "OwnableInvalidOwner",
      "type": "error"
    },
    {
      "inputs": [
        {
          "internalType": "address",
          "name": "account",
          "type": "address"
        }
      ],
      "name": "OwnableUnauthorizedAccount",
      "type": "error"
    },
    {
      "anonymous": false,
      "inputs": [
        {
          "indexed": true,
          "internalType": "address",
          "name": "previousOwner",
          "type": "address"
        },
        {
          "indexed": true,
          "internalType": "address",
          "name": "newOwner",
          "type": "address"
        }
      ],
      "name": "OwnershipTransferred",
      "type": "event"
    },
    {
      "anonymous": false,
      "inputs": [
        {
          "indexed": true,
          "internalType": "address",
          "name": "buyer",
          "type": "address"
        },
        {
          "indexed": false,
          "internalType": "uint256",
          "name": "amount",
          "type": "uint256"
        }
      ],
      "name": "TokensPurchased",
      "type": "event"
    },
    {
      "inputs": [],
      "name": "owner",
      "outputs": [
        {
          "internalType": "address",
          "name": "",
          "type": "address"
        }
      ],
      "stateMutability": "view",
      "type": "function"
    },
    {
      "inputs": [],
      "name": "renounceOwnership",
      "outputs": [],
      "stateMutability": "nonpayable",
      "type": "function"
    },
    {
      "inputs": [],
      "name": "token",
      "outputs": [
        {
          "internalType": "contract MyToken",
          "name": "",
          "type": "address"
        }
      ],
      "stateMutability": "view",
      "type": "function"
    },
    {
      "inputs": [],
      "name": "tokenPrice",
      "outputs": [
        {
          "internalType": "uint256",
          "name": "",
          "type": "uint256"
        }
      ],
      "stateMutability": "view",
      "type": "function"
    },
    {
      "inputs": [
        {
          "internalType": "address",
          "name": "newOwner",
          "type": "address"
        }
      ],
      "name": "transferOwnership",
      "outputs": [],
      "stateMutability": "nonpayable",
      "type": "function"
    },
    {
      "inputs": [],
      "name": "buyTokens",
      "outputs": [],
      "stateMutability": "payable",
      "type": "function"
    },
    {
      "inputs": [],
      "name": "tokensLeftForSale",
      "outputs": [
        {
          "internalType": "uint256",
          "name": "",
          "type": "uint256"
        }
      ],
      "stateMutability": "view",
      "type": "function"
    },
    {
      "inputs": [],
      "name": "withdrawEther",
      "outputs": [],
      "stateMutability": "nonpayable",
      "type": "function"
    }
  ],
  "bytecode": "0x608060405234801562000010575f80fd5b50604051620010583803806200105883398181016040528101906200003691906200027c565b335f73ffffffffffffffffffffffffffffffffffffffff168173ffffffffffffffffffffffffffffffffffffffff1603620000aa575f6040517f1e4fbdf7000000000000000000000000000000000000000000000000000000008152600401620000a19190620002d2565b60405180910390fd5b620000bb816200010b60201b60201c565b508160015f6101000a81548173ffffffffffffffffffffffffffffffffffffffff021916908373ffffffffffffffffffffffffffffffffffffffff160217905550806002819055505050620002ed565b5f805f9054906101000a900473ffffffffffffffffffffffffffffffffffffffff169050815f806101000a81548173ffffffffffffffffffffffffffffffffffffffff021916908373ffffffffffffffffffffffffffffffffffffffff1602179055508173ffffffffffffffffffffffffffffffffffffffff168173ffffffffffffffffffffffffffffffffffffffff167f8be0079c531659141344cd1fd0a4f28419497f9722a3daafe3b4186f6b6457e060405160405180910390a35050565b5f80fd5b5f73ffffffffffffffffffffffffffffffffffffffff82169050919050565b5f620001fb82620001d0565b9050919050565b5f6200020e82620001ef565b9050919050565b620002208162000202565b81146200022b575f80fd5b50565b5f815190506200023e8162000215565b92915050565b5f819050919050565b620002588162000244565b811462000263575f80fd5b50565b5f8151905062000276816200024d565b92915050565b5f8060408385031215620002955762000294620001cc565b5b5f620002a4858286016200022e565b9250506020620002b78582860162000266565b9150509250929050565b620002cc81620001ef565b82525050565b5f602082019050620002e75f830184620002c1565b92915050565b610d5d80620002fb5f395ff3fe60806040526004361061007a575f3560e01c806396b58ac81161004d57806396b58ac8146100fe578063d0febe4c14610128578063f2fde38b14610132578063fc0c546a1461015a5761007a565b8063715018a61461007e5780637362377b146100945780637ff9b596146100aa5780638da5cb5b146100d4575b5f80fd5b348015610089575f80fd5b50610092610184565b005b34801561009f575f80fd5b506100a8610197565b005b3480156100b5575f80fd5b506100be6101ec565b6040516100cb9190610788565b60405180910390f35b3480156100df575f80fd5b506100e86101f2565b6040516100f591906107e0565b60405180910390f35b348015610109575f80fd5b50610112610219565b60405161011f9190610788565b60405180910390f35b6101306102b8565b005b34801561013d575f80fd5b5061015860048036038101906101539190610827565b610578565b005b348015610165575f80fd5b5061016e6105fc565b60405161017b91906108ad565b60405180910390f35b61018c610621565b6101955f6106a8565b565b61019f610621565b6101a76101f2565b73ffffffffffffffffffffffffffffffffffffffff166108fc4790811502906040515f60405180830381858888f193505050501580156101e9573d5f803e3d5ffd5b50565b60025481565b5f805f9054906101000a900473ffffffffffffffffffffffffffffffffffffffff16905090565b5f60015f9054906101000a900473ffffffffffffffffffffffffffffffffffffffff1673ffffffffffffffffffffffffffffffffffffffff166370a08231306040518263ffffffff1660e01b815260040161027491906107e0565b602060405180830381865afa15801561028f573d5f803e3d5ffd5b505050506040513d601f19601f820116820180604052508101906102b391906108f0565b905090565b5f34116102fa576040517f08c379a00000000000000000000000000000000000000000000000000000000081526004016102f190610975565b60405180910390fd5b5f60025460015f9054906101000a900473ffffffffffffffffffffffffffffffffffffffff1673ffffffffffffffffffffffffffffffffffffffff1663313ce5676040518163ffffffff1660e01b8152600401602060405180830381865afa158015610368573d5f803e3d5ffd5b505050506040513d601f19601f8201168201806040525081019061038c91906109c9565b600a6103989190610b50565b346103a39190610b9a565b6103ad9190610c08565b90508060015f9054906101000a900473ffffffffffffffffffffffffffffffffffffffff1673ffffffffffffffffffffffffffffffffffffffff166370a08231306040518263ffffffff1660e01b815260040161040a91906107e0565b602060405180830381865afa158015610425573d5f803e3d5ffd5b505050506040513d601f19601f8201168201806040525081019061044991906108f0565b101561048a576040517f08c379a000000000000000000000000000000000000000000000000000000000815260040161048190610c82565b60405180910390fd5b60015f9054906101000a900473ffffffffffffffffffffffffffffffffffffffff1673ffffffffffffffffffffffffffffffffffffffff1663a9059cbb33836040518363ffffffff1660e01b81526004016104e6929190610ca0565b6020604051808303815f875af1158015610502573d5f803e3d5ffd5b505050506040513d601f19601f820116820180604052508101906105269190610cfc565b503373ffffffffffffffffffffffffffffffffffffffff167f8f28852646c20cc973d3a8218f7eefed58c25c909f78f0265af4818c3d4dc2718260405161056d9190610788565b60405180910390a250565b610580610621565b5f73ffffffffffffffffffffffffffffffffffffffff168173ffffffffffffffffffffffffffffffffffffffff16036105f0575f6040517f1e4fbdf70000000000000000000000000000000000000000000000000000000081526004016105e791906107e0565b60405180910390fd5b6105f9816106a8565b50565b60015f9054906101000a900473ffffffffffffffffffffffffffffffffffffffff1681565b610629610769565b73ffffffffffffffffffffffffffffffffffffffff166106476101f2565b73ffffffffffffffffffffffffffffffffffffffff16146106a65761066a610769565b6040517f118cdaa700000000000000000000000000000000000000000000000000000000815260040161069d91906107e0565b60405180910390fd5b565b5f805f9054906101000a900473ffffffffffffffffffffffffffffffffffffffff169050815f806101000a81548173ffffffffffffffffffffffffffffffffffffffff021916908373ffffffffffffffffffffffffffffffffffffffff1602179055508173ffffffffffffffffffffffffffffffffffffffff168173ffffffffffffffffffffffffffffffffffffffff167f8be0079c531659141344cd1fd0a4f28419497f9722a3daafe3b4186f6b6457e060405160405180910390a35050565b5f33905090565b5f819050919050565b61078281610770565b82525050565b5f60208201905061079b5f830184610779565b92915050565b5f73ffffffffffffffffffffffffffffffffffffffff82169050919050565b5f6107ca826107a1565b9050919050565b6107da816107c0565b82525050565b5f6020820190506107f35f8301846107d1565b92915050565b5f80fd5b610806816107c0565b8114610810575f80fd5b50565b5f81359050610821816107fd565b92915050565b5f6020828403121561083c5761083b6107f9565b5b5f61084984828501610813565b91505092915050565b5f819050919050565b5f61087561087061086b846107a1565b610852565b6107a1565b9050919050565b5f6108868261085b565b9050919050565b5f6108978261087c565b9050919050565b6108a78161088d565b82525050565b5f6020820190506108c05f83018461089e565b92915050565b6108cf81610770565b81146108d9575f80fd5b50565b5f815190506108ea816108c6565b92915050565b5f60208284031215610905576109046107f9565b5b5f610912848285016108dc565b91505092915050565b5f82825260208201905092915050565b7f56616c7565206d7573742062652067726561746572207468616e2030000000005f82015250565b5f61095f601c8361091b565b915061096a8261092b565b602082019050919050565b5f6020820190508181035f83015261098c81610953565b9050919050565b5f60ff82169050919050565b6109a881610993565b81146109b2575f80fd5b50565b5f815190506109c38161099f565b92915050565b5f602082840312156109de576109dd6107f9565b5b5f6109eb848285016109b5565b91505092915050565b7f4e487b71000000000000000000000000000000000000000000000000000000005f52601160045260245ffd5b5f8160011c9050919050565b5f808291508390505b6001851115610a7657808604811115610a5257610a516109f4565b5b6001851615610a615780820291505b8081029050610a6f85610a21565b9450610a36565b94509492505050565b5f82610a8e5760019050610b49565b81610a9b575f9050610b49565b8160018114610ab15760028114610abb57610aea565b6001915050610b49565b60ff841115610acd57610acc6109f4565b5b8360020a915084821115610ae457610ae36109f4565b5b50610b49565b5060208310610133831016604e8410600b8410161715610b1f5782820a905083811115610b1a57610b196109f4565b5b610b49565b610b2c8484846001610a2d565b92509050818404811115610b4357610b426109f4565b5b81810290505b9392505050565b5f610b5a82610770565b9150610b6583610993565b9250610b927fffffffffffffffffffffffffffffffffffffffffffffffffffffffffffffffff8484610a7f565b905092915050565b5f610ba482610770565b9150610baf83610770565b9250828202610bbd81610770565b91508282048414831517610bd457610bd36109f4565b5b5092915050565b7f4e487b71000000000000000000000000000000000000000000000000000000005f52601260045260245ffd5b5f610c1282610770565b9150610c1d83610770565b925082610c2d57610c2c610bdb565b5b828204905092915050565b7f4e6f7420656e6f75676820746f6b656e7320666f722073616c650000000000005f82015250565b5f610c6c601a8361091b565b9150610c7782610c38565b602082019050919050565b5f6020820190508181035f830152610c9981610c60565b9050919050565b5f604082019050610cb35f8301856107d1565b610cc06020830184610779565b9392505050565b5f8115159050919050565b610cdb81610cc7565b8114610ce5575f80fd5b50565b5f81519050610cf681610cd2565b92915050565b5f60208284031215610d1157610d106107f9565b5b5f610d1e84828501610ce8565b9150509291505056fea26469706673582212207f1defa80b398c91795593e0a338066df28b325567646cd6ac4591783113411e64736f6c63430008140033",
  "immutableReferences": {},
  "source": "// SPDX-License-Identifier: MIT\r\npragma solidity ^0.8.20;\r\n\r\nimport \"./MyToken.sol\";\r\nimport \"@openzeppelin/contracts/access/Ownable.sol\";\r\n\r\ncontract TokenSale is Ownable {\r\n    MyToken public token;\r\n    uint256 public tokenPrice;\r\n\r\n    event TokensPurchased(address indexed buyer, uint256 amount);\r\n\r\n    // Pass the deployer's address to the Ownable constructor\r\n    constructor(MyToken _token, uint256 _tokenPrice) Ownable(msg.sender) {\r\n        token = _token;\r\n        tokenPrice = _tokenPrice;\r\n    }\r\n\r\n    function buyTokens() public payable {\r\n        require(msg.value > 0, \"Value must be greater than 0\");\r\n        uint256 amount = (msg.value * (10**token.decimals())) / tokenPrice;\r\n        require(token.balanceOf(address(this)) >= amount, \"Not enough tokens for sale\");\r\n\r\n        token.transfer(msg.sender, amount);\r\n        emit TokensPurchased(msg.sender, amount);\r\n    }\r\n\r\n    function tokensLeftForSale() public view returns (uint256) {\r\n        return token.balanceOf(address(this));\r\n    }\r\n\r\n    function withdrawEther() public onlyOwner {\r\n        payable(owner()).transfer(address(this).balance);\r\n    }\r\n}\r\n",
  "sourcePath": "D:\\Development\\Simple-smart-contract\\contracts\\TokenSale.sol",
  "compiler": {
    "name": "solc",
    "version": "0.8.20+commit.a1b79de6.Emscripten.clang"
  },
  "schemaVersion": "3.4.14",
  "updatedAt": "2024-01-17T17:11:54.727Z",
  "devdoc": {
    "errors": {
      "OwnableInvalidOwner(address)": [
        {
          "details": "The owner is not a valid owner account. (eg. `address(0)`)"
        }
      ],
      "OwnableUnauthorizedAccount(address)": [
        {
          "details": "The caller account is not authorized to perform an operation."
        }
      ]
    },
    "kind": "dev",
    "methods": {
      "owner()": {
        "details": "Returns the address of the current owner."
      },
      "renounceOwnership()": {
        "details": "Leaves the contract without owner. It will not be possible to call `onlyOwner` functions. Can only be called by the current owner. NOTE: Renouncing ownership will leave the contract without an owner, thereby disabling any functionality that is only available to the owner."
      },
      "transferOwnership(address)": {
        "details": "Transfers ownership of the contract to a new account (`newOwner`). Can only be called by the current owner."
      }
    },
    "version": 1
  },
  "userdoc": {
    "kind": "user",
    "methods": {},
    "version": 1
  }
}